:10000000D6C00000F0C00000EEC00000ECC0000050
:10001000EAC00000E8C00000E6C00000E4C0000044
:10002000E2C00000E0C00000DEC00000DCC0000054
:10003000DAC00000D8C00000D6C00000D4C0000064
:10004000D2C00000D0C00000CEC00000CCC0000074
:10005000CAC00000C8C00000C6C00000C4C0000084
:100060000C94660AD2C300003FC30000BCC000006D
:10007000BAC00000B8C00000B6C00000B4C00000A4
:10008000B2C00000B0C00000AEC00000ACC00000B4
:100090006AC70000A8C00000D0C500003DC600002F
:1000A0004FC6000057C600009EC000006E616E0083
:1000B000696E660000407A10F35A00A0724E18096B
:1000C0000010A5D4E80000E87648170000E40B54BF
:1000D000020000CA9A3B000000E1F505000080968E
:1000E0009800000040420F000000A08601000000C0
:1000F000102700000000E80300000000640000007A
:1001000000000A00000000000100000000002C7642
:10011000D888DC674F0823DFC1DFAE59E1B1B7965D
:10012000E5E3E453C63AE651997696E8E6C28426BA
:10013000EB898C9B62ED407C6FFCEFBC9C9F40F296
:10014000BAA56FA5F490055A2AF75C936B6CF96712
:100150006DC11BFCE0E40D47FEF520E6B500D0EDD7
:10016000902E0300943577050080841E080000203F
:100170004E0A000000C80C333333330F986E1283DD
:100180001141EF8D2114893BE65516CFFEE6DB18B1
:10019000D1844B381BF77C1D901DA4BBE424203276
:1001A00084725E228100C9F124ECA1E53D2711246F
:1001B0001FBECFEFDAE0DEBFCDBF13E0A0E0B1E0BD
:1001C000E4E1F5E202C005900D92A23AB107D9F739
:1001D00019E0A2EAB3E001C01D92A536B107E1F72C
:1001E000A8D00C9488120CCF80E091E00895EF9293
:1001F000FF920F931F93CF93DF938C017B0180E0DD
:1002000090E06CE671E00E941011EC01009719F08B
:100210008881882331F4F80180819181892B41F014
:1002200015C0CE016EE671E00E941E11009731F4F8
:1002300081E090E0F801918380831FC0CE0161E7E7
:1002400071E00E941E11009721F4F80111821082C2
:1002500014C08EEA93E065E771E042E350E00E944B
:100260004D118EEA93E0BE0142E350E00E942E1150
:100270008EEA93E06FE871E01DC08EEA93E062E9D8
:1002800071E042E350E00E944D118EEA93E0B70125
:1002900042E350E00E942E11F80180819181892B68
:1002A00029F08EEA93E06AE971E004C08EEA93E0F7
:1002B0006BEA71E042E350E00E942E118EEA93E077
:1002C000CDB7DEB7E6E00C9400108EE692E06DEB61
:1002D00071E08DCFCF93DF9380EE93E064ED71E01A
:1002E0004EE150E00E944D1180E090E06CE671E03C
:1002F0000E941011EC01009779F080EE93E06CE61B
:1003000071E04EE150E00E942E1180EE93E0BE01BC
:100310004EE150E00E942E1180EE93E069ED71E015
:100320004EE150E00E942E1180EE93E0DF91CF91DC
:100330000895A0E0B0E0EFE9F1E00C94D80F10923E
:10034000D800F89473D387E774D50E94E2098BED47
:1003500091E064EF70E0ABD28CED91E065E671E086
:10036000A6D28EED91E065E671E0A1D280EE91E03B
:100370006AE671E09CD298D393D394D39DD388E856
:1003800093E120E931E0F9013197F1F70197D9F7CD
:100390009AD388E893E120E931E0F9013197F1F748
:1003A0000197D9F789D388E893E120E931E0F90191
:1003B0003197F1F70197D9F786D367D182E792E0B9
:1003C000909362098093610980E892E090936009BC
:1003D00080935F0989ED91E00E94D11187EE91E051
:1003E0000E94D1118EE092E00E94D111C4D10FD4AD
:1003F0003B014C010CD45B016C01AFD302D491E3FF
:10040000492E98E0592E81E2282E87E0382E8091DF
:10041000AC039091AD03892BA1F000D0EDE2F5E0A3
:10042000ADB7BEB71296FC93EE9311970E94BF1121
:100430000F900F90A0D1F8941092AD031092AC03DE
:1004400078948091FF0390910004892B71F100D082
:1004500000D0E1E2F2E0ADB7BEB71296FC93EE93A6
:10046000119789E997E014969C938E9313970E94B5
:10047000BF110F900F900F900F9089E997E031D244
:10048000009759F000D0ADB7BEB712969C938E93EB
:1004900011970E94BF110F900F901092FE031092BF
:1004A0009907109200041092FF038091DB04909151
:1004B000DC04892B09F440C000D000D089E292E02E
:1004C000EDB7FEB792838183548243820E94BF11AD
:1004D0000F900F900F900F90C201D0D4EC0100D07C
:1004E00000D0E7E3F2E0ADB7BEB71296FC93EE930F
:1004F000119714969C938E9313970E94BF110F909F
:100500000F900F900F90209759F08DEC97E0BE015F
:1005100042E350E00E944D111092DE041092DD047F
:10052000F8941092DA041092D904109231081092C3
:10053000DC041092DB04789480910305909104050B
:10054000892B09F445C000D000D0E5E4F2E0ADB756
:10055000BEB71296FC93EE93119714965C924E924E
:1005600013970E94BF110F900F900F900F908BEF79
:1005700098E044D7EC0100D000D0E3E5F2E0ADB75D
:10058000BEB71296FC93EE93119714969C938E939C
:1005900013970E94BF110F900F900F900F9020970C
:1005A00059F087E998E0BE0142E350E00E944D1106
:1005B0001092060510920505F8941092020510920B
:1005C00001051092FB08109204051092030578941F
:1005D0001ED36615770588059905A8F180917002EC
:1005E00090917102892B79F1FDD37B018C010FD39E
:1005F0003B014C0184E690E0A0E0B0E0680E791E7B
:100600008A1E9B1EADB7BEB718970FB6F894BEBF33
:100610000FBEADBFEDB7FEB7319612963C922E924B
:10062000119781E692E093838283E482F5820683C8
:1006300017830E940612ADB7BEB718960FB6F8948E
:10064000BEBF0FBEADBFE3D26A157B058C059D050D
:1006500008F4DDCE80916E0290916F02892B49F0F3
:1006600000D0EDB7FEB7328221820E94BF110F90F9
:100670000F90CDD25B016C0188EE93E0A0E0B0E07A
:10068000A80EB91ECA1EDB1EC2CE2FB7F894109258
:10069000C800E9ECF0E01082AAECB0E01C9280E126
:1006A00090E09093CD008093CC008C9186608C93E9
:1006B0008081886080838081806180838081806880
:1006C00080832FBF0895209101043091020480910E
:1006D00003049091040440E050E02817390711F01A
:1006E00041E050E0CA0108951F920F920FB60F9299
:1006F00011242F933F935F936F937F938F939F93D7
:10070000AF93BF93EF93FF932091010430910204C4
:10071000809103049091040428173907B9F0E091FF
:100720000304F0910404E95FFB4F80818093CE00C5
:100730008091030490910404019668EC70E00E949B
:10074000C50F909304048093030405C08091C900F1
:100750008F7D8093C900FF91EF91BF91AF919F91E1
:100760008F917F916F915F913F912F910F900FBE6D
:100770000F901F901895CF93DF93C0EADFE02FC052
:10078000CE010197F1F78091C80085FF23C0F8944E
:10079000209101043091020480910304909104049B
:1007A00028173907B1F0E0910304F0910404E95FE0
:1007B000FB4F80818093CE008091030490910404CC
:1007C000019668EC70E00E94C50F9093040480933A
:1007D000030478948091C90080628093C9002091BD
:1007E00001043091020480910304909104042817BD
:1007F000390731F6DF91CF9108958091C80087FFC6
:10080000FCCF8091CE0090E008951F920F920FB61A
:100810000F9211248F939F93EF93FF939091CE00AB
:100820008091FE03813318F09D30C1F502C09D30E8
:1008300039F481E090E0909300048093FF032EC090
:10084000983041F48091FE03882311F18091FE03DA
:1008500081501CC0903291F09E3281F09B3271F039
:100860009D3261F09A3351F0892F80538A3030F0F5
:1008700081518A3118F080528A3180F48091FE03D0
:10088000E82FF0E0E756F84F90838F5F8093FE03E8
:10089000E091FE03F0E0E756F84F1082FF91EF91F0
:1008A0009F918F910F900FBE0F901F9018952091E0
:1008B000050430910604A5E3B7E0F901EE0FFF1F30
:1008C000EE0FFF1FEA0FFB1F918380837383628308
:1008D0002F5F3F4F309306042093050480E090E0A3
:1008E0000895A0E0B0E0E7E7F4E00C94E00F6C01BD
:1008F0006EE872E00E9410115C01E0900504F09037
:10090000060405E317E0C0E0D0E017C0F8016081FD
:100910007181C5010E941E110C5F1F4F009761F489
:10092000CC0FDD1FCC0FDD1FC95CD84FE881F981EA
:10093000C60109959C0106C02196CE15DF0534F34A
:1009400020E932E0C901CDB7DEB7EAE00C94FC0F34
:100950001F93182F8A3021F48DE0FADF01C0BED03A
:1009600080910104909102042091030430910404C9
:10097000019668EC70E00E94C50F8217930779F327
:100980004FB7F894E0910104F0910204E95FFB4F46
:1009900010838091010490910204019668EC70E04C
:1009A0000E94C50F90930204809301048091C800B7
:1009B00085FF21C02091010430910204809103043D
:1009C0009091040428173907B1F0E0910304F091E5
:1009D0000404E95FFB4F80818093CE008091030483
:1009E00090910404019668EC70E00E94C50F90930A
:1009F0000404809303042091010430910204809147
:100A00000304909104042817390729F08091C90044
:100A100080628093C9008091C90080628093C90080
:100A20004FBF789480E090E01F910895ECE7F0E0EC
:100A3000108210927B0010927E0010927F008081C5
:100A4000806C8083EAE7F0E080818760808380812A
:100A500080688083089520917C0090917C00907E36
:100A6000922B282F2F71922B90937C0085FF04C02E
:100A700080917B00806203C080917B008F7D80939A
:100A80007B0080917A00806480937A0080917A0064
:100A900086FDFCCF2091780030917900C90108953E
:100AA0003F9A0895559A0895209A08953F9A479A33
:100AB0000895559A5D980895209A28980895479822
:100AC00008955D9A0895289A089588B1805888B944
:100AD00008958BB190E289278BB9089585B191E093
:100AE000892785B90895569A0895269A0895249AD3
:100AF0000895569A5E980895269A2E980895249AF5
:100B00002C9808955E9808952E9808952C9808952D
:100B10008BB190E489278BB9089585B190E489273A
:100B200085B9089585B190E1892785B908953F9ADF
:100B3000559A209A82FF03C03F9A479A01C047986E
:100B400081FF03C0559A5D9801C05D9A80FF03C084
:100B5000209A28980895289A0895E4ECF0E01082ED
:100B60008081E3ECF0E080838081E2ECF0E0808340
:100B70008081A1ECB0E08C938C918093C000E2ED79
:100B8000F0E01082808121ED30E0F90180838081E6
:100B9000E0EDF0E080838081EFECF0E08083808105
:100BA000EFEBF0E08083808190E09093BF00809332
:100BB000BE00E4EDF0E01082808189BB89B3E2E7FA
:100BC000F0E080838C9187608C938AEFD9018C93BD
:100BD0008081806480831092CF041092D0041092A0
:100BE000D1041092D2041092D3041092D404109223
:100BF000D5041092D604089589B38F7189BBCA9821
:100C00000895E2E7F0E080818064808308958FB7E3
:100C1000F8942091CF043091D0044091D104909168
:100C2000D2045091D3045091D4045091D5045091E2
:100C3000D6048FBFB901842F08951F920F920FB66B
:100C40000F9211241F932F933F934F935F936F93B2
:100C50007F938F939F93AF93BF93EF93FF93809175
:100C6000CF042091D0043091D1044091D2046091FE
:100C7000D304E091D404A091D5041091D604B82FE8
:100C8000BF5F91E0B81708F090E0F92FF20F81E014
:100C9000F21708F080E0782F730F81E0731708F0E7
:100CA00080E0582F540F81E0541708F080E0382F6F
:100CB000360F81E0361708F080E0282F2E0F81E0F4
:100CC0002E1708F080E0982F9A0F81E09A1708F00D
:100CD00080E0810FB093CF04F093D0047093D104DF
:100CE0005093D2043093D3042093D4049093D5042A
:100CF0008093D604FF91EF91BF91AF919F918F9117
:100D00007F916F915F914F913F912F911F910F9024
:100D10000FBE0F901F9018951F920F920FB60F9253
:100D200011240F900FBE0F901F9018951F920F92D5
:100D30000FB60F9211240F900FBE0F901F901895B1
:100D40001F920F920FB60F9211240F900FBE0F90AB
:100D50001F9018951F920F920FB60F9211240F90AB
:100D60000FBE0F901F90189581E2EEE1F0E08093A6
:100D700057009491EFE1F0E0809357009491EEE2F8
:100D8000F0E0809357009491EFE2F0E080935700F9
:100D90009491ECE2F0E0809357009491EDE2F0E062
:100DA000809357009491E8E0F0E08093570094918D
:100DB000E9E0F0E0809357009491EAE0F0E080935E
:100DC00057009491EBE0F0E0809357009491ECE0B1
:100DD000F0E0809357009491EDE0F0E080935700AD
:100DE000849108958091D7049091D804892B39F487
:100DF000BBDF81E090E09093D8048093D70416DEA7
:100E000087E290E028DE12DE87E290E024DEAA2767
:100E100097FDA095BA2FBC01CD010E94390F20E0AB
:100E200030E047E753E456D726EF38E24CE95FE37A
:100E3000B6C79FB7F894880F8093BA00ECEBF0E048
:100E40001082808181608083808180648083808142
:100E50008068808380818460808350985198589AFC
:100E6000599A1092DE041092DD049FBF0895F89401
:100E70001092BC001092BA0078940895A2E0B0E0FD
:100E8000E4E4F7E00C94E40F81E398E09A8389832B
:100E900065EA72E07E010894E11CF11CA7010E9442
:100EA0006C118C0167EA72E00E941E11009761F5D7
:100EB00083EE94E06EEA72E04EE150E00E944D1144
:100EC00080E090E065EA72E0A7010E946C118C015D
:100ED000009779F083EE94E065EA72E04EE150E02D
:100EE0000E942E1183EE94E0B8014EE150E00E9482
:100EF0002E1183EE94E063EB72E04EE150E00E942D
:100F00002E1123EE34E02AC0C80165EB72E00E9486
:100F10001E110097B9F480E090E065EA72E0A70145
:100F20000E946C118C016BEB72E00E941E11011586
:100F3000110511F0009719F020EC32E00FC021E20A
:100F400037E00CC0C80167EC72E00E941E110097E8
:100F500019F420E030E002C02AEC32E0C901229608
:100F6000E6E00C9400101F920F920FB60F9211241E
:100F7000EF92FF920F931F932F933F934F935F93A3
:100F80006F937F938F939F93AF93BF93EF93FF9351
:100F9000DF93CF93CDB7DEB7EA97DEBFCDBF8091A9
:100FA000B90090E0887F9070883A910509F467C095
:100FB000893A910554F480389105A1F0883891055B
:100FC000A1F0892B09F4DFC1E0C1803C910509F44F
:100FD00046C1883C910509F48AC1883B910509F016
:100FE000D4C1C4C081E090E002C082E090E09FDD07
:100FF0008091D9049091DA048436910549F4809166
:10100000D9049091DA0401979093DA048093D9047B
:101010008091D9049091DA042091BB00FC01EF5C2F
:10102000F74F208301969093DA048093D904E091DE
:10103000D904F091DA04EF5CF74F1082E091D90403
:10104000F091DA04E05DF74F80818A3009F09DC1AC
:101050008091D9049091DA0401979093DA048093F7
:10106000D904E091D904F091DA04EF5CF74F1082D3
:1010700081E090E09093DC048093DB0486C183E000
:1010800090E055DDE091DD04F091DE04E353F84F8C
:101090008081882389F08091DD049091DE04FC0139
:1010A000E353F84F20812093BB0001969093DE0418
:1010B0008093DD0485EC03C01092BB0085E880932B
:1010C000BC00E091DD04F091DE04E453F84F808130
:1010D00090E00E94FB10182F90E00E94FE10892BD8
:1010E00009F01EE28091DD049091DE04019739F44D
:1010F0008DE295E06FED72E00E94271108C08DE24D
:1011000095E060EF72E044EF51E00E942E11E09113
:10111000DD04F091DE04E453F84FE081E295EF70D6
:10112000F0E0E95AFC4F80818983E091DD04F09181
:10113000DE04E453F84FE081F0E0EF70F070E95A1C
:10114000FC4F80818A8380E28B8387E28C831D83BE
:101150008E838AE08F8318868DE295E0BE016F5FF3
:101160007F4F44EF51E00E942E1112C184E090E0C5
:10117000DEDCE091DD04F091DE04E353F84F808182
:10118000882399F08091DD049091DE04FC01E35303
:10119000F84F20812093BB0001969093DE0480934A
:1011A000DD0485EC8093BC0005C085E88093BC001D
:1011B0001092BB00E091DD04F091DE04E453F84F9F
:1011C000808190E00E94FB10182F90E00E94FE109A
:1011D000892B09F01EE28091DD049091DE040197D5
:1011E00039F48DE295E060E073E00E94271108C0B9
:1011F0008DE295E062E173E044EF51E00E942E1130
:10120000E091DD04F091DE04E453F84FE081E295D3
:10121000EF70F0E0E95AFC4F80818983E091DD04B2
:10122000F091DE04E453F84FE081F0E0EF70F070ED
:10123000E95AFC4F80818A8380E28B8387E28C832A
:101240001D838E838AE08F8318868DE295E0BE0130
:101250006F5F7F4F44EF51E00E942E118DC085E0FB
:1012600090E065DC85EC8093BC00E091DD04F091BA
:10127000DE04E453F84F808190E0BDD7182F90E052
:10128000BDD7892B09F01EE22091DD043091DE04E8
:101290008DB79EB708970FB6F8949EBF0FBE8DBF4F
:1012A000EDB7FEB7319699E0E92EF12CEC0EFD1E5C
:1012B000ADB7BEB71296FC92EE92119783E293E01F
:1012C0009383828321503040358324831683178291
:1012D0000E9406128DB79EB708960FB6F8949EBF6F
:1012E0000FBE8DBF8DE295E0B7019DD751C086E05E
:1012F00090E01DDC85EC8093BC00E091DD04F09172
:10130000DE04E453F84F808190E075D7082F90E019
:1013100075D7892B09F00EE22091DD043091DE04AF
:10132000ADB7BEB718970FB6F894BEBF0FBEADBF2E
:10133000EDB7FEB7319689E0E82EF12CEC0EFD1EDC
:101340001296FC92EE9211978DE393E09383828341
:101350002150304035832483068317820E94061271
:101360008DB79EB708960FB6F8949EBF0FBE8DBF7F
:101370008DE295E0B70157D781E090E09093AD03FF
:101380008093AC0305C01092BC0085EC8093BC0038
:10139000EA96DEBFCDBFCF91DF91FF91EF91BF9174
:1013A000AF919F918F917F916F915F914F913F91FD
:1013B0002F911F910F91FF90EF900F900FBE0F9004
:1013C0001F9018959FB7F89488E084B980E48CBD8D
:1013D0008CB580588CBD8DB58EB5109206051092D7
:1013E000050510920205109201059FBF0895F8941B
:1013F0001092BC001092BA0078940895A2E0B0E078
:10140000E3E0FAE0E1C58BEF98E09A83898367E631
:1014100073E07E010894E11CF11CA7015DD78C01EB
:1014200069E673E00BD7009739F58DE095E060E74A
:1014300073E04EE150E031D780E090E067E673E082
:10144000A7014AD78C01009769F08DE095E067E627
:1014500073E04EE150E002D78DE095E0B8014EE137
:1014600050E0FCD68DE095E065E773E04EE150E09A
:10147000F5D62DE035E026C0C80167E773E0DED67B
:101480000097A9F480E090E067E673E0A70124D715
:101490008C016DE773E0D2D60115110511F00097AC
:1014A00019F022E833E00EC021E237E00BC0C8019A
:1014B00069E873E0C3D6009719F420E030E002C079
:1014C0002CE833E0C9012296E6E09AC51F920F92FC
:1014D0000FB60F9211240F931F932F933F934F93A7
:1014E0005F936F937F938F939F93AF93BF93EF938C
:1014F000FF93EBDA80910105909102058436910506
:1015000049F480910105909102050197909302059D
:10151000809301058EB5882309F461C0809101058F
:10152000909102052EB5FC01E550F74F20830196FE
:101530009093020580930105E0910105F091020569
:10154000E550F74F1082E0910105F0910205E65059
:10155000F74F80818A3019F580910105909102053D
:1015600001979093020580930105E0910105F091A8
:101570000205E550F74F108201E010E010930405DA
:10158000009303058DE295E06BEF78E060D6109351
:10159000AD030093AC0310920205109201058091F7
:1015A00001059091020544979CF001E010E0109332
:1015B0000405009303058DE295E06BEF78E047D6D4
:1015C0001093AD030093AC03109202051092010535
:1015D00080919508809396088EB580939508FF9129
:1015E000EF91BF91AF919F918F917F916F915F919B
:1015F0004F913F912F911F910F910F900FBE0F9020
:101600001F901895A1E1B0E0E7E0FBE0D1C43C01F8
:101610007F876E876A01FC0117821682838181FDB4
:1016200003C06FEF7FEF52C39E012F5F3F4F398B97
:10163000288BF3012381EE85FF8523FD859123FF10
:101640008191FF87EE87882309F43DC3853251F4E9
:10165000EE85FF8523FD859123FF8191FF87EE872E
:10166000853221F490E0B3015ED6E3CF982F10E0ED
:10167000882499241032B0F49B3269F09C3228F40B
:10168000903251F0933271F40BC09D3239F09033A7
:1016900049F4116028C01260146025C0186023C08E
:1016A000106121C017FD2AC0892F80538A3078F439
:1016B00016FF06C0FAE09F9E902C1124980E13C0CE
:1016C0003AE0839E802C1124880E10620CC09E325A
:1016D00021F416FDF8C2106406C09C3611F410689F
:1016E00002C0983659F4EE85FF8523FD959123FFBE
:1016F0009191FF87EE87992309F0BCCF892F8554FC
:10170000833020F4812F8061905E07C0892F855639
:10171000833008F08FC1812F8F7E86FD02C076E076
:10172000972E6FE3F62EF822953619F4F0E4FF2A8F
:1017300007C0963619F420E8F22A02C091109A9454
:10174000F7FE0AC03BE3391518F45CE3B52E02C07E
:10175000B92CB39427E009C047E0491520F4BB2415
:1017600047E0942EF7CF292DBB24C60104969D8710
:101770008C87F6016081718182819381AE014F5F18
:101780005F4F0B2D60D46C010981202E332400FFA4
:1017900004C003FD02C01DE209C0F1FE02C01BE24D
:1017A00005C0F2FC02C010E001C010E2C1018C7063
:1017B0009070892BA1F1112311F483E001C084E022
:1017C000881510F0882409C0881AF3FC06C080E24E
:1017D00090E0B301A8D58A94D1F7112321F0812F8D
:1017E00090E0B301A0D523FE03C00CEA10E00DC0C9
:1017F00000EB10E00AC0E114F10409F0805290E01F
:10180000B30191D50F5F1F4F05C0EF2CFF24F0E10E
:10181000EF22FF24F8018491882369F708C1F7FEBD
:1018200012C0BC0C24FE04C08A81813309F4BA942E
:101830001B141CF0BB24B3942DC0F8E0FB1550F52D
:1018400038E0B32E27C0F6FC25C0892D90E08C151A
:101850009D054CF02CEFC2162FEFD20624F030E895
:10186000F32A01C09A94992049F0E2E0F0E0EC0FED
:10187000FD1FE90DF11D80818033A1F3F7FE0AC041
:10188000B92CB394892D90E0C816D90614F0992488
:1018900001C09C18F7FC03C025E030E009C01C140F
:1018A0001D041CF021E030E003C096012F5F3F4F84
:1018B000112311F02F5F3F4F992029F0892D90E0DF
:1018C0000196280F391F882D90E02817390714F04A
:1018D000882401C0821A4F2C5524C201897090704F
:1018E000892B31F007C080E290E0B3011CD58A94C7
:1018F0008820C9F7112321F0812F90E0B30113D57F
:1019000043FE06C007C080E390E0B3010CD58A9483
:101910008820C9F7F7FE44C08601D7FE02C000E068
:1019200010E076010894E11CF11CE01AF10A41E094
:1019300050E04C0F5D1FE40EF51E26014B185108B8
:10194000892D90E0AA24BB24A81AB90A5FEF0F3FA3
:10195000150721F48EE290E0B301E5D4C016D1065C
:1019600034F0401651061CF4F701808101C080E379
:10197000015010400894E11CF11C0A151B0524F0CD
:1019800090E0B301D0D4E2CF0C151D0539F49A8153
:10199000963318F4953311F424FE81E390E045C0AA
:1019A0008A81813309F00F7E90E0B301BCD4992085
:1019B00091F08EE290E0B301B6D412E0E1E0F0E005
:1019C000EC0FFD1FE10FF11D1F5F808190E0B3015F
:1019D000AAD49A9499F744FC03C085E690E002C02B
:1019E00085E490E0B3019FD4D7FC05C0C114D104B5
:1019F00041F404FF06C0D094C194D108D3948DE281
:101A000001C08BE290E0B3018ED480E305C08F5F0C
:101A100026EF3FEFC20ED31E3AE0C316D104BCF747
:101A200090E0B30180D4C601C096B3017CD4CC84CD
:101A3000DD8446C1933631F0933799F0933509F040
:101A400055C022C0F601808189835E010894A11CE3
:101A5000B11C22E030E0C20ED31E21E0E22EF12CB8
:101A600011C0F601A080B18016FD03C06FEF7FEFBB
:101A700002C0692D70E022E030E0C20ED31EC50125
:101A800020D47C011F7712C0F601A080B18016FD22
:101A900003C06FEF7FEF02C0692D70E022E030E0FD
:101AA000C20ED31EC501B1D37C01106813FF06C05E
:101AB00019C080E290E0B30136D48A94882D90E07A
:101AC000E816F906B0F30EC0F50117FD859117FF72
:101AD00081915F0190E0B30126D481108A9408942B
:101AE000E108F108E114F10479F7EAC0943611F045
:101AF000993681F517FF08C0F601208131814281B6
:101B0000538184E090E00AC0F601808191819C01BC
:101B1000442737FD4095542F82E090E0C80ED91E2F
:101B20009FE6F92EF12257FF09C050954095309558
:101B300021953F4F4F4F5F4F90E8F92ACA01B901F5
:101B4000AE014F5F5F4F2AE030E081D4E82EE88994
:101B5000EE1A40C0953721F41F7E2AE030E01CC009
:101B6000197F9F3661F0903720F4983509F0ABC0AB
:101B70000FC0903739F0983709F0A5C004C028E0AD
:101B800030E00AC0106114FD146020E130E004C0B0
:101B900014FD166020E132E017FF08C0F6016081F5
:101BA00071818281938144E050E008C0F601808118
:101BB0009181BC0180E090E042E050E0C40ED51E6F
:101BC000AE014F5F5F4F43D4E82E5889E51A8FE787
:101BD000F82EF122F6FE0BC08EEFF822E91438F44D
:101BE000F4FE07C0F2FC05C09FEEF92202C01E2DD4
:101BF00001C0192DF4FE0DC0FE01EE0DF11D808116
:101C0000803319F4E9EEFE2208C01F5FF2FE05C022
:101C100003C08F2D867809F01F5F0F2DF3FC13C0D2
:101C2000F0FE0EC0181510F09E2C0AC09E2C980CC9
:101C3000911A182D05C080E290E0B30174D31F5FA4
:101C40001815C8F304C0181510F4811A01C08824AF
:101C500004FF0EC080E390E0B30165D302FF1BC018
:101C600001FD03C088E790E00EC088E590E00BC05E
:101C7000802F867881F001FF02C08BE201C080E2F4
:101C8000F7FC8DE290E0B3014ED305C080E390E015
:101C9000B30149D39A94E914C8F3EA94E1E0F0E07F
:101CA000EC0FFD1FEE0DF11D808190E0B3013BD3E1
:101CB000EE2099F705C080E290E0B30134D38A9416
:101CC0008820C9F7B6CCF30166817781CB01619694
:101CD000E2E18AC15058BB27AA270ED01CC10DD102
:101CE00030F012D120F031F49F3F11F41EF402C104
:101CF0000EF4E095E7FBF8C0E92F1ED180F3BA1788
:101D0000620773078407950718F071F49EF536C1D2
:101D10000EF4E0950B2EBA2FA02D0B01B901900106
:101D20000C01CA01A0011124FF27591B99F0593F4A
:101D300050F4503E68F11A16F040A22F232F342F92
:101D40004427585FF3CF469537952795A795F040E0
:101D50005395C9F77EF41F16BA0B620B730B840BF5
:101D6000BAF09150A1F0FF0FBB1F661F771F881FAD
:101D7000C2F70EC0BA0F621F731F841F48F4879505
:101D800077956795B795F7959E3F08F0B3CF9395F4
:101D9000880F08F09927EE0F9795879508950CD036
:101DA000BAC0B2D040F0A9D030F021F45F3F19F0B2
:101DB0009BC05111E4C09EC0BFD098F39923C9F3D2
:101DC0005523B1F3951B550BBB27AA276217730741
:101DD000840738F09F5F5F4F220F331F441FAA1FF5
:101DE000A9F333D00E2E3AF0E0E830D091505040B5
:101DF000E695001CCAF729D0FE2F27D0660F771F63
:101E0000881FBB1F261737074807AB07B0E809F044
:101E1000BB0B802DBF01FF2793585F4F2AF09E3FD9
:101E2000510568F061C0ABC05F3FECF3983EDCF356
:101E3000869577956795B795F7959F5FC9F7880F52
:101E4000911D9695879597F90895E1E0660F771FA4
:101E5000881FBB1F621773078407BA0720F0621B35
:101E6000730B840BBA0BEE1F88F7E0950895E89486
:101E700009C097FB3EF490958095709561957F4FD2
:101E80008F4F9F4F9923A9F0F92F96E9BB27939580
:101E9000F695879577956795B795F111F8CFFAF490
:101EA000BB0F11F460FF1BC06F5F7F4F8F4F9F4FC1
:101EB00016C0882311F096E911C0772321F09EE81F
:101EC000872F762F05C0662371F096E8862F70E085
:101ED00060E02AF09A95660F771F881FDAF7880F5F
:101EE0009695879597F9089597F99F6780E870E030
:101EF00060E008959FEF80EC089500240A94161680
:101F0000170618060906089500240A9412161306E7
:101F1000140605060895092E0394000C11F4882375
:101F200052F0BB0F40F4BF2B11F460FF04C06F5F91
:101F30007F4F8F4F9F4F089557FD9058440F551F67
:101F400059F05F3F71F04795880F97FB991F61F03B
:101F50009F3F79F087950895121613061406551FB2
:101F6000F2CF4695F1DF08C0161617061806991F1E
:101F7000F1CF86957105610508940895E894BB2713
:101F800066277727CB0197F9089597FB092E072637
:101F90000AD077FD04D043D006D000201AF4709503
:101FA00061957F4F0895F6F7909581959F4F08951D
:101FB0002F923F924F925F926F927F928F929F9259
:101FC000AF92BF92CF92DF92EF92FF920F931F9347
:101FD000CF93DF93CDB7DEB7CA1BDB0B0FB6F894F8
:101FE000DEBF0FBECDBF09942A88398848885F8438
:101FF0006E847D848C849B84AA84B984C884DF80A9
:10200000EE80FD800C811B81AA81B981CE0FD11D8C
:102010000FB6F894DEBF0FBECDBFED010895AA1B29
:10202000BB1B51E107C0AA1FBB1FA617B70710F0C3
:10203000A61BB70B881F991F5A95A9F780959095F5
:10204000BC01CD010895283008F027E03327DA01DC
:10205000990F311D87FD916000966105710539F476
:1020600032602E5F3D9330E32A95E1F708959F3F5C
:1020700030F080387105610509F03C5F3C5F3D93AD
:10208000913008F08068911DDF93CF931F930F93D9
:10209000FF92EF92192F987F9695E92F9695969536
:1020A000E90FFF27E25FFE4F99273327EE24FF2435
:1020B000A701E70105900894079428F4360FE71E5E
:1020C000F81E491F511D660F771F881F991F069420
:1020D000A1F70590079428F4E70EF81E491F561F34
:1020E000C11D770F881F991F661F0694A1F70590E1
:1020F000079428F4F80E491F561FC71FD11D880FDB
:10210000991F661F771F0694A1F70590079420F486
:10211000490F561FC71FD81F990F661F771F881FAB
:102120000694A9F784911095177041F0D695C7953C
:1021300057954795F794E7941A95C1F7E4EBF0E0CB
:1021400068941590159135916591959105907FE270
:102150007395E118F10A430B560BC90BD009C0F770
:10216000E10CF11E431F561FC91FD01D7EF47033B2
:1021700011F48A95E6CFE894015030F0080F0AF484
:102180000027021708F4202F2395022F7A3328F016
:1021900079E37D932A95E9F710C07D932A9589F616
:1021A000069497956795379517951794E118F10A56
:1021B000430B560BC90BD00998F023957E9173956C
:1021C0007A3308F070E37C932013B8F77E91706146
:1021D0007D9330F0839571E37D9370E32A95E1F769
:1021E0001124EF90FF900F911F91CF91DF919927CC
:1021F00087FD9095089599278F770895911185C14E
:102200008F3711F08052D8F70895FC010590615086
:1022100070400110D8F7809590958E0F9F1F0895FC
:102220004BE255E059C0FB01DC010D900020E9F7BD
:10223000119701900D920020E1F70895FB01DC0158
:102240008D91019080190110D9F3990B0895FB012C
:10225000DC0101900D920020E1F70895DC01FB0103
:102260004150504070F00D900020D1F7A15004C0B3
:1022700001900D92002061F041505040C8F71C922F
:10228000BF0101900020E9F7E61BF70BAE0FBF1F5F
:102290000894A80BB90BCD010895DC01FB01415056
:1022A000504058F049F001900D920020C1F7E61B14
:1022B000F70B3197CF0108951C9201900020E9F7A8
:1022C000F6CFFC016150704001900110D8F7809565
:1022D00090958E0F9F1F0895FA01A191B0810097EC
:1022E00019F41097E1F0CD01DC01CD010D90002033
:1022F00011F4C00113C0FB012191222319F0201514
:10230000D9F7F3CFFB012191201519F41E921196F4
:1023100006C02223C1F70D900020A1F7D001FA01D9
:10232000A193B08308950F931F93CF93DF938C01F4
:10233000EB018B8181FF1BC082FF0DC02E813F818D
:102340008C819D812817390764F4E881F981019314
:10235000F983E88306C0E885F985802F0995892BE4
:1023600031F48E819F8101969F838E8302C00FEF8F
:102370001FEFC801DF91CF911F910F910895A0E049
:10238000B0E0E4ECF1E124CEFE013596619171916B
:102390008091610990916209AF0134D92096E2E001
:1023A00033CE0F931F93CF93DF938C01E09161099C
:1023B000F0916209838181FF21C0C0E0D0E00DC0AF
:1023C000E0916109F091620920853185BF01F90131
:1023D0000995892B11F0CFEFDFEFF80181918F0183
:1023E000882371F7E0916109F091620920853185B8
:1023F0008AE0BF01F9010995892B11F0CFEFDFEFDA
:10240000CE01DF91CF911F910F910895AEE0B0E022
:10241000EBE0F2E1DBCD0D891E8986E08C831A8327
:1024200009838FEF9FE79E838D839E01275E3F4F39
:10243000CE0101966F89788DA901E4D82F81388566
:10244000020F131FF80110822E96E4E0DBCDFA0193
:10245000AA27283051F1203181F1E8946F936E7FE3
:102460006E5F7F4F8F4F9F4FAF4FB1E03ED0B4E0D4
:102470003CD0670F781F891F9A1FA11D680F791F15
:102480008A1F911DA11D6A0F711D811D911DA11D26
:1024900020D009F468943F912AE0269F1124301936
:1024A000305D3193DEF6CF010895462F4770405DD1
:1024B0004193B3E00FD0C9F7F6CF462F4F70405D80
:1024C0004A3318F0495D31FD4052419302D0A9F7DB
:1024D000EACFB4E0A6959795879577956795BA95D5
:1024E000C9F700976105710508959B01AC010A2E9B
:1024F00006945795479537952795BA95C9F7620F72
:10250000731F841F951FA01D08959927882708957C
:04251000F894FFCF6D
:10251400456E746572206120636F6D6D6D616E64CC
:102524003A0A0A2070205B6F6E207C206F66665D1D
:1025340020202020546F67676C65202F20656E6112
:10254400626C65202F2064697361626C652070720F
:10255400696E74696E67206F662073746174652098
:10256400696E666F726D6174696F6E0A2050205BCC
:102574006F6E207C206F66665D0A0A0020006F6E15
:10258400006F666600556E7265636F676E697A6583
:102594006420706172616D657465723A2022002254
:1025A4000A002A2A2A2A2A2A200020656E61626CDF
:1025B4006564202A2A2A2A2A2A0A00206469736167
:1025C400626C6564202A2A2A2A2A2A0A004465742D
:1025D40061696C656420696E666F207072696E74DF
:1025E400696E670061636B3A000A00007000500076
:1025F40068656C6C6F3A002320416E64726F696485
:10260400205468696E6773202F2041726475696E67
:102614006F20496E746567726174696F6E00232060
:1026240054696D6F746879204A2E2053616C6F0A67
:102634000072783A2025730A004932432020207220
:10264400783A2025730A0049324320726573703A40
:102654002025730A0053504920202072783A2025FF
:10266400730A0053504920726573703A2025730A27
:102674000074656D703A2025342E31660A0001001D
:1026840001000000000200000000A8040000000097
:1026940000000001000000000000FD030000200015
:1026A4002320436F6D6D616E64206E6F7420666FBE
:1026B400756E640A00200068656C6C6F3A00616393
:1026C4006B3A000A0073656E643A0074656D7000BD
:1026D4006E61636B3A0A00243A002320436F6D6DE8
:1026E400616E64206E6F7420666F756E640A000AF2
:1026F40054575F53545F534C415F41434B3A20005E
:1027040054575F53545F534C415F41434B3A20004D
:102714000A54575F53545F444154415F41434B3A19
:10272400200054575F53545F444154415F41434B2D
:102734003A200054575F53545F444154415F4E4123
:10274400434B3A20256420272563270A0054575F0A
:1027540053545F4C4153545F444154413A202569DA
:1027640020272563270A0030313233343536373891
:1027740039616263646566200068656C6C6F3A0059
:1027840061636B3A000A0073656E643A0074656DA8
:1027940070006E61636B3A0A00243A002320436F91
:1027A4006D6D616E64206E6F7420666F756E640A61
:0227B400000023
:00000001FF
